{
  "address": "0xfD0A5D2a40e8B0Cf243CF04D3d55862b57e1a329",
  "abi": [
    {
      "inputs": [
        {
          "internalType": "uint256",
          "name": "x",
          "type": "uint256"
        }
      ],
      "name": "changeNum",
      "outputs": [],
      "stateMutability": "nonpayable",
      "type": "function"
    },
    {
      "inputs": [],
      "name": "num",
      "outputs": [
        {
          "internalType": "uint256",
          "name": "",
          "type": "uint256"
        }
      ],
      "stateMutability": "view",
      "type": "function"
    }
  ],
  "transactionHash": "0x16009842942cb043ccb35b02ffb3c0f983db59ae2e0e101f82198ee706f62578",
  "args": [],
  "numDeployments": 1,
  "solcInputHash": "9a061eff459a2d9fdffe5b6269f9b8e8",
  "bytecode": "0x6080604052348015600e575f80fd5b5060aa8061001b5f395ff3fe6080604052348015600e575f80fd5b50600436106030575f3560e01c80632b3113371460345780634e70b1dc146045575b5f80fd5b6043603f366004605e565b5f55565b005b604c5f5481565b60405190815260200160405180910390f35b5f60208284031215606d575f80fd5b503591905056fea2646970667358221220abc3fe6b0e9c882c7f082cb2a84743d8fec2cb2fe0c9cd111471c9daa73b0ba964736f6c63430008180033",
  "devdoc": {
    "kind": "dev",
    "methods": {},
    "version": 1
  },
  "userdoc": {
    "kind": "user",
    "methods": {},
    "version": 1
  },
  "storageLayout": {
    "storage": [
      {
        "astId": 3,
        "contract": "contracts/Test.sol:Test",
        "label": "num",
        "offset": 0,
        "slot": "0",
        "type": "t_uint256"
      }
    ],
    "types": {
      "t_uint256": {
        "encoding": "inplace",
        "label": "uint256",
        "numberOfBytes": "32"
      }
    }
  }
}